
uart.elf:     file format elf32-avr

Sections:
Idx Name          Size      VMA       LMA       File off  Algn
  0 .data         00000002  00800200  000003fe  00000492  2**0
                  CONTENTS, ALLOC, LOAD, DATA
  1 .text         000003fe  00000000  00000000  00000094  2**1
                  CONTENTS, ALLOC, LOAD, READONLY, CODE
  2 .bss          0000004e  00800202  00800202  00000494  2**0
                  ALLOC
  3 .comment      00000030  00000000  00000000  00000494  2**0
                  CONTENTS, READONLY
  4 .note.gnu.avr.deviceinfo 00000040  00000000  00000000  000004c4  2**2
                  CONTENTS, READONLY
  5 .debug_aranges 000000b8  00000000  00000000  00000504  2**0
                  CONTENTS, READONLY, DEBUGGING
  6 .debug_info   00001633  00000000  00000000  000005bc  2**0
                  CONTENTS, READONLY, DEBUGGING
  7 .debug_abbrev 00000e6b  00000000  00000000  00001bef  2**0
                  CONTENTS, READONLY, DEBUGGING
  8 .debug_line   0000086d  00000000  00000000  00002a5a  2**0
                  CONTENTS, READONLY, DEBUGGING
  9 .debug_frame  000001a0  00000000  00000000  000032c8  2**2
                  CONTENTS, READONLY, DEBUGGING
 10 .debug_str    000006d2  00000000  00000000  00003468  2**0
                  CONTENTS, READONLY, DEBUGGING
 11 .debug_loc    0000082f  00000000  00000000  00003b3a  2**0
                  CONTENTS, READONLY, DEBUGGING
 12 .debug_ranges 00000098  00000000  00000000  00004369  2**0
                  CONTENTS, READONLY, DEBUGGING

Disassembly of section .text:

00000000 <__vectors>:
   0:	0c 94 72 00 	jmp	0xe4	; 0xe4 <__ctors_end>
   4:	0c 94 93 00 	jmp	0x126	; 0x126 <__bad_interrupt>
   8:	0c 94 93 00 	jmp	0x126	; 0x126 <__bad_interrupt>
   c:	0c 94 93 00 	jmp	0x126	; 0x126 <__bad_interrupt>
  10:	0c 94 93 00 	jmp	0x126	; 0x126 <__bad_interrupt>
  14:	0c 94 93 00 	jmp	0x126	; 0x126 <__bad_interrupt>
  18:	0c 94 93 00 	jmp	0x126	; 0x126 <__bad_interrupt>
  1c:	0c 94 93 00 	jmp	0x126	; 0x126 <__bad_interrupt>
  20:	0c 94 93 00 	jmp	0x126	; 0x126 <__bad_interrupt>
  24:	0c 94 93 00 	jmp	0x126	; 0x126 <__bad_interrupt>
  28:	0c 94 93 00 	jmp	0x126	; 0x126 <__bad_interrupt>
  2c:	0c 94 93 00 	jmp	0x126	; 0x126 <__bad_interrupt>
  30:	0c 94 93 00 	jmp	0x126	; 0x126 <__bad_interrupt>
  34:	0c 94 93 00 	jmp	0x126	; 0x126 <__bad_interrupt>
  38:	0c 94 93 00 	jmp	0x126	; 0x126 <__bad_interrupt>
  3c:	0c 94 93 00 	jmp	0x126	; 0x126 <__bad_interrupt>
  40:	0c 94 93 00 	jmp	0x126	; 0x126 <__bad_interrupt>
  44:	0c 94 93 00 	jmp	0x126	; 0x126 <__bad_interrupt>
  48:	0c 94 93 00 	jmp	0x126	; 0x126 <__bad_interrupt>
  4c:	0c 94 93 00 	jmp	0x126	; 0x126 <__bad_interrupt>
  50:	0c 94 93 00 	jmp	0x126	; 0x126 <__bad_interrupt>
  54:	0c 94 93 00 	jmp	0x126	; 0x126 <__bad_interrupt>
  58:	0c 94 93 00 	jmp	0x126	; 0x126 <__bad_interrupt>
  5c:	0c 94 93 00 	jmp	0x126	; 0x126 <__bad_interrupt>
  60:	0c 94 93 00 	jmp	0x126	; 0x126 <__bad_interrupt>
  64:	0c 94 93 00 	jmp	0x126	; 0x126 <__bad_interrupt>
  68:	0c 94 93 00 	jmp	0x126	; 0x126 <__bad_interrupt>
  6c:	0c 94 93 00 	jmp	0x126	; 0x126 <__bad_interrupt>
  70:	0c 94 93 00 	jmp	0x126	; 0x126 <__bad_interrupt>
  74:	0c 94 93 00 	jmp	0x126	; 0x126 <__bad_interrupt>
  78:	0c 94 93 00 	jmp	0x126	; 0x126 <__bad_interrupt>
  7c:	0c 94 93 00 	jmp	0x126	; 0x126 <__bad_interrupt>
  80:	0c 94 93 00 	jmp	0x126	; 0x126 <__bad_interrupt>
  84:	0c 94 93 00 	jmp	0x126	; 0x126 <__bad_interrupt>
  88:	0c 94 93 00 	jmp	0x126	; 0x126 <__bad_interrupt>
  8c:	0c 94 93 00 	jmp	0x126	; 0x126 <__bad_interrupt>
  90:	0c 94 93 00 	jmp	0x126	; 0x126 <__bad_interrupt>
  94:	0c 94 93 00 	jmp	0x126	; 0x126 <__bad_interrupt>
  98:	0c 94 93 00 	jmp	0x126	; 0x126 <__bad_interrupt>
  9c:	0c 94 93 00 	jmp	0x126	; 0x126 <__bad_interrupt>
  a0:	0c 94 93 00 	jmp	0x126	; 0x126 <__bad_interrupt>
  a4:	0c 94 93 00 	jmp	0x126	; 0x126 <__bad_interrupt>
  a8:	0c 94 93 00 	jmp	0x126	; 0x126 <__bad_interrupt>
  ac:	0c 94 93 00 	jmp	0x126	; 0x126 <__bad_interrupt>
  b0:	0c 94 93 00 	jmp	0x126	; 0x126 <__bad_interrupt>
  b4:	0c 94 93 00 	jmp	0x126	; 0x126 <__bad_interrupt>
  b8:	0c 94 93 00 	jmp	0x126	; 0x126 <__bad_interrupt>
  bc:	0c 94 93 00 	jmp	0x126	; 0x126 <__bad_interrupt>
  c0:	0c 94 93 00 	jmp	0x126	; 0x126 <__bad_interrupt>
  c4:	0c 94 93 00 	jmp	0x126	; 0x126 <__bad_interrupt>
  c8:	0c 94 93 00 	jmp	0x126	; 0x126 <__bad_interrupt>
  cc:	0c 94 89 01 	jmp	0x312	; 0x312 <__vector_51>
  d0:	0c 94 93 00 	jmp	0x126	; 0x126 <__bad_interrupt>
  d4:	0c 94 93 00 	jmp	0x126	; 0x126 <__bad_interrupt>
  d8:	0c 94 93 00 	jmp	0x126	; 0x126 <__bad_interrupt>
  dc:	0c 94 93 00 	jmp	0x126	; 0x126 <__bad_interrupt>
  e0:	0c 94 93 00 	jmp	0x126	; 0x126 <__bad_interrupt>

000000e4 <__ctors_end>:
  e4:	11 24       	eor	r1, r1
  e6:	1f be       	out	0x3f, r1	; 63
  e8:	cf ef       	ldi	r28, 0xFF	; 255
  ea:	d1 e2       	ldi	r29, 0x21	; 33
  ec:	de bf       	out	0x3e, r29	; 62
  ee:	cd bf       	out	0x3d, r28	; 61
  f0:	00 e0       	ldi	r16, 0x00	; 0
  f2:	0c bf       	out	0x3c, r16	; 60

000000f4 <__do_copy_data>:
  f4:	12 e0       	ldi	r17, 0x02	; 2
  f6:	a0 e0       	ldi	r26, 0x00	; 0
  f8:	b2 e0       	ldi	r27, 0x02	; 2
  fa:	ee ef       	ldi	r30, 0xFE	; 254
  fc:	f3 e0       	ldi	r31, 0x03	; 3
  fe:	00 e0       	ldi	r16, 0x00	; 0
 100:	0b bf       	out	0x3b, r16	; 59
 102:	02 c0       	rjmp	.+4      	; 0x108 <__do_copy_data+0x14>
 104:	07 90       	elpm	r0, Z+
 106:	0d 92       	st	X+, r0
 108:	a2 30       	cpi	r26, 0x02	; 2
 10a:	b1 07       	cpc	r27, r17
 10c:	d9 f7       	brne	.-10     	; 0x104 <__do_copy_data+0x10>

0000010e <__do_clear_bss>:
 10e:	22 e0       	ldi	r18, 0x02	; 2
 110:	a2 e0       	ldi	r26, 0x02	; 2
 112:	b2 e0       	ldi	r27, 0x02	; 2
 114:	01 c0       	rjmp	.+2      	; 0x118 <.do_clear_bss_start>

00000116 <.do_clear_bss_loop>:
 116:	1d 92       	st	X+, r1

00000118 <.do_clear_bss_start>:
 118:	a0 35       	cpi	r26, 0x50	; 80
 11a:	b2 07       	cpc	r27, r18
 11c:	e1 f7       	brne	.-8      	; 0x116 <.do_clear_bss_loop>
 11e:	0e 94 d8 01 	call	0x3b0	; 0x3b0 <main>
 122:	0c 94 fd 01 	jmp	0x3fa	; 0x3fa <_exit>

00000126 <__bad_interrupt>:
 126:	0c 94 00 00 	jmp	0	; 0x0 <__vectors>

0000012a <lcd_set_4bit>:
}


void lcd_home()
{
	lcd_wr_command(0x80);
 12a:	89 ef       	ldi	r24, 0xF9	; 249
 12c:	90 e0       	ldi	r25, 0x00	; 0
 12e:	01 97       	sbiw	r24, 0x01	; 1
 130:	f1 f7       	brne	.-4      	; 0x12e <lcd_set_4bit+0x4>
 132:	00 c0       	rjmp	.+0      	; 0x134 <lcd_set_4bit+0xa>
 134:	00 00       	nop
 136:	40 98       	cbi	0x08, 0	; 8
 138:	41 98       	cbi	0x08, 1	; 8
 13a:	80 e3       	ldi	r24, 0x30	; 48
 13c:	88 b9       	out	0x08, r24	; 8
 13e:	42 9a       	sbi	0x08, 2	; 8
 140:	e1 ee       	ldi	r30, 0xE1	; 225
 142:	f4 e0       	ldi	r31, 0x04	; 4
 144:	31 97       	sbiw	r30, 0x01	; 1
 146:	f1 f7       	brne	.-4      	; 0x144 <lcd_set_4bit+0x1a>
 148:	00 c0       	rjmp	.+0      	; 0x14a <lcd_set_4bit+0x20>
 14a:	00 00       	nop
 14c:	42 98       	cbi	0x08, 2	; 8
 14e:	e9 ef       	ldi	r30, 0xF9	; 249
 150:	f0 e0       	ldi	r31, 0x00	; 0
 152:	31 97       	sbiw	r30, 0x01	; 1
 154:	f1 f7       	brne	.-4      	; 0x152 <lcd_set_4bit+0x28>
 156:	00 c0       	rjmp	.+0      	; 0x158 <lcd_set_4bit+0x2e>
 158:	00 00       	nop
 15a:	40 98       	cbi	0x08, 0	; 8
 15c:	41 98       	cbi	0x08, 1	; 8
 15e:	88 b9       	out	0x08, r24	; 8
 160:	42 9a       	sbi	0x08, 2	; 8
 162:	e1 ee       	ldi	r30, 0xE1	; 225
 164:	f4 e0       	ldi	r31, 0x04	; 4
 166:	31 97       	sbiw	r30, 0x01	; 1
 168:	f1 f7       	brne	.-4      	; 0x166 <lcd_set_4bit+0x3c>
 16a:	00 c0       	rjmp	.+0      	; 0x16c <lcd_set_4bit+0x42>
 16c:	00 00       	nop
 16e:	42 98       	cbi	0x08, 2	; 8
 170:	e9 ef       	ldi	r30, 0xF9	; 249
 172:	f0 e0       	ldi	r31, 0x00	; 0
 174:	31 97       	sbiw	r30, 0x01	; 1
 176:	f1 f7       	brne	.-4      	; 0x174 <lcd_set_4bit+0x4a>
 178:	00 c0       	rjmp	.+0      	; 0x17a <lcd_set_4bit+0x50>
 17a:	00 00       	nop
 17c:	40 98       	cbi	0x08, 0	; 8
 17e:	41 98       	cbi	0x08, 1	; 8
 180:	88 b9       	out	0x08, r24	; 8
 182:	42 9a       	sbi	0x08, 2	; 8
 184:	81 ee       	ldi	r24, 0xE1	; 225
 186:	94 e0       	ldi	r25, 0x04	; 4
 188:	01 97       	sbiw	r24, 0x01	; 1
 18a:	f1 f7       	brne	.-4      	; 0x188 <lcd_set_4bit+0x5e>
 18c:	00 c0       	rjmp	.+0      	; 0x18e <lcd_set_4bit+0x64>
 18e:	00 00       	nop
 190:	42 98       	cbi	0x08, 2	; 8
 192:	e9 ef       	ldi	r30, 0xF9	; 249
 194:	f0 e0       	ldi	r31, 0x00	; 0
 196:	31 97       	sbiw	r30, 0x01	; 1
 198:	f1 f7       	brne	.-4      	; 0x196 <lcd_set_4bit+0x6c>
 19a:	00 c0       	rjmp	.+0      	; 0x19c <lcd_set_4bit+0x72>
 19c:	00 00       	nop
 19e:	40 98       	cbi	0x08, 0	; 8
 1a0:	41 98       	cbi	0x08, 1	; 8
 1a2:	80 e2       	ldi	r24, 0x20	; 32
 1a4:	88 b9       	out	0x08, r24	; 8
 1a6:	42 9a       	sbi	0x08, 2	; 8
 1a8:	81 ee       	ldi	r24, 0xE1	; 225
 1aa:	94 e0       	ldi	r25, 0x04	; 4
 1ac:	01 97       	sbiw	r24, 0x01	; 1
 1ae:	f1 f7       	brne	.-4      	; 0x1ac <lcd_set_4bit+0x82>
 1b0:	00 c0       	rjmp	.+0      	; 0x1b2 <lcd_set_4bit+0x88>
 1b2:	00 00       	nop
 1b4:	42 98       	cbi	0x08, 2	; 8
 1b6:	08 95       	ret

000001b8 <lcd_wr_command>:
 1b8:	98 b1       	in	r25, 0x08	; 8
 1ba:	9f 70       	andi	r25, 0x0F	; 15
 1bc:	98 b9       	out	0x08, r25	; 8
 1be:	98 b1       	in	r25, 0x08	; 8
 1c0:	28 2f       	mov	r18, r24
 1c2:	20 7f       	andi	r18, 0xF0	; 240
 1c4:	92 2b       	or	r25, r18
 1c6:	98 b9       	out	0x08, r25	; 8
 1c8:	40 98       	cbi	0x08, 0	; 8
 1ca:	41 98       	cbi	0x08, 1	; 8
 1cc:	42 9a       	sbi	0x08, 2	; 8
 1ce:	e1 ee       	ldi	r30, 0xE1	; 225
 1d0:	f4 e0       	ldi	r31, 0x04	; 4
 1d2:	31 97       	sbiw	r30, 0x01	; 1
 1d4:	f1 f7       	brne	.-4      	; 0x1d2 <lcd_wr_command+0x1a>
 1d6:	00 c0       	rjmp	.+0      	; 0x1d8 <lcd_wr_command+0x20>
 1d8:	00 00       	nop
 1da:	42 98       	cbi	0x08, 2	; 8
 1dc:	98 b1       	in	r25, 0x08	; 8
 1de:	9f 70       	andi	r25, 0x0F	; 15
 1e0:	98 b9       	out	0x08, r25	; 8
 1e2:	98 b1       	in	r25, 0x08	; 8
 1e4:	82 95       	swap	r24
 1e6:	80 7f       	andi	r24, 0xF0	; 240
 1e8:	89 2b       	or	r24, r25
 1ea:	88 b9       	out	0x08, r24	; 8
 1ec:	40 98       	cbi	0x08, 0	; 8
 1ee:	41 98       	cbi	0x08, 1	; 8
 1f0:	42 9a       	sbi	0x08, 2	; 8
 1f2:	81 ee       	ldi	r24, 0xE1	; 225
 1f4:	94 e0       	ldi	r25, 0x04	; 4
 1f6:	01 97       	sbiw	r24, 0x01	; 1
 1f8:	f1 f7       	brne	.-4      	; 0x1f6 <lcd_wr_command+0x3e>
 1fa:	00 c0       	rjmp	.+0      	; 0x1fc <lcd_wr_command+0x44>
 1fc:	00 00       	nop
 1fe:	42 98       	cbi	0x08, 2	; 8
 200:	08 95       	ret

00000202 <lcd_init>:
 202:	89 ef       	ldi	r24, 0xF9	; 249
 204:	90 e0       	ldi	r25, 0x00	; 0
 206:	01 97       	sbiw	r24, 0x01	; 1
 208:	f1 f7       	brne	.-4      	; 0x206 <lcd_init+0x4>
 20a:	00 c0       	rjmp	.+0      	; 0x20c <lcd_init+0xa>
 20c:	00 00       	nop
 20e:	88 e2       	ldi	r24, 0x28	; 40
 210:	0e 94 dc 00 	call	0x1b8	; 0x1b8 <lcd_wr_command>
 214:	81 e0       	ldi	r24, 0x01	; 1
 216:	0e 94 dc 00 	call	0x1b8	; 0x1b8 <lcd_wr_command>
 21a:	86 e0       	ldi	r24, 0x06	; 6
 21c:	0e 94 dc 00 	call	0x1b8	; 0x1b8 <lcd_wr_command>
 220:	8e e0       	ldi	r24, 0x0E	; 14
 222:	0e 94 dc 00 	call	0x1b8	; 0x1b8 <lcd_wr_command>
 226:	80 e8       	ldi	r24, 0x80	; 128
 228:	0e 94 dc 00 	call	0x1b8	; 0x1b8 <lcd_wr_command>
 22c:	08 95       	ret

0000022e <lcd_wr_char>:
 22e:	98 b1       	in	r25, 0x08	; 8
 230:	9f 70       	andi	r25, 0x0F	; 15
 232:	98 b9       	out	0x08, r25	; 8
 234:	98 b1       	in	r25, 0x08	; 8
 236:	28 2f       	mov	r18, r24
 238:	20 7f       	andi	r18, 0xF0	; 240
 23a:	92 2b       	or	r25, r18
 23c:	98 b9       	out	0x08, r25	; 8
 23e:	40 9a       	sbi	0x08, 0	; 8
 240:	41 98       	cbi	0x08, 1	; 8
 242:	42 9a       	sbi	0x08, 2	; 8
 244:	e1 ee       	ldi	r30, 0xE1	; 225
 246:	f4 e0       	ldi	r31, 0x04	; 4
 248:	31 97       	sbiw	r30, 0x01	; 1
 24a:	f1 f7       	brne	.-4      	; 0x248 <lcd_wr_char+0x1a>
 24c:	00 c0       	rjmp	.+0      	; 0x24e <lcd_wr_char+0x20>
 24e:	00 00       	nop
 250:	42 98       	cbi	0x08, 2	; 8
 252:	98 b1       	in	r25, 0x08	; 8
 254:	9f 70       	andi	r25, 0x0F	; 15
 256:	98 b9       	out	0x08, r25	; 8
 258:	98 b1       	in	r25, 0x08	; 8
 25a:	82 95       	swap	r24
 25c:	80 7f       	andi	r24, 0xF0	; 240
 25e:	89 2b       	or	r24, r25
 260:	88 b9       	out	0x08, r24	; 8
 262:	40 9a       	sbi	0x08, 0	; 8
 264:	41 98       	cbi	0x08, 1	; 8
 266:	42 9a       	sbi	0x08, 2	; 8
 268:	81 ee       	ldi	r24, 0xE1	; 225
 26a:	94 e0       	ldi	r25, 0x04	; 4
 26c:	01 97       	sbiw	r24, 0x01	; 1
 26e:	f1 f7       	brne	.-4      	; 0x26c <lcd_wr_char+0x3e>
 270:	00 c0       	rjmp	.+0      	; 0x272 <lcd_wr_char+0x44>
 272:	00 00       	nop
 274:	42 98       	cbi	0x08, 2	; 8
 276:	08 95       	ret

00000278 <lcd_string>:
}


/*****Function to Print String on LCD*****/
void lcd_string(char *str)
{
 278:	cf 93       	push	r28
 27a:	df 93       	push	r29
 27c:	ec 01       	movw	r28, r24
	while(*str != '\0')
 27e:	88 81       	ld	r24, Y
 280:	88 23       	and	r24, r24
 282:	31 f0       	breq	.+12     	; 0x290 <lcd_string+0x18>
 284:	21 96       	adiw	r28, 0x01	; 1
	{
		lcd_wr_char(*str);
 286:	0e 94 17 01 	call	0x22e	; 0x22e <lcd_wr_char>


/*****Function to Print String on LCD*****/
void lcd_string(char *str)
{
	while(*str != '\0')
 28a:	89 91       	ld	r24, Y+
 28c:	81 11       	cpse	r24, r1
 28e:	fb cf       	rjmp	.-10     	; 0x286 <lcd_string+0xe>
	{
		lcd_wr_char(*str);
		str++;
	}
}
 290:	df 91       	pop	r29
 292:	cf 91       	pop	r28
 294:	08 95       	ret

00000296 <lcd_cursor>:

/*** Position the LCD cursor at "row", "column". ***/

void lcd_cursor (char row, char column)
{
	switch (row) {
 296:	82 30       	cpi	r24, 0x02	; 2
 298:	71 f0       	breq	.+28     	; 0x2b6 <lcd_cursor+0x20>
 29a:	18 f4       	brcc	.+6      	; 0x2a2 <lcd_cursor+0xc>
 29c:	81 30       	cpi	r24, 0x01	; 1
 29e:	31 f0       	breq	.+12     	; 0x2ac <lcd_cursor+0x16>
 2a0:	08 95       	ret
 2a2:	83 30       	cpi	r24, 0x03	; 3
 2a4:	69 f0       	breq	.+26     	; 0x2c0 <lcd_cursor+0x2a>
 2a6:	84 30       	cpi	r24, 0x04	; 4
 2a8:	81 f0       	breq	.+32     	; 0x2ca <lcd_cursor+0x34>
 2aa:	08 95       	ret
		case 1: lcd_wr_command (0x80 + column - 1); break;
 2ac:	8f e7       	ldi	r24, 0x7F	; 127
 2ae:	86 0f       	add	r24, r22
 2b0:	0e 94 dc 00 	call	0x1b8	; 0x1b8 <lcd_wr_command>
 2b4:	08 95       	ret
		case 2: lcd_wr_command (0xc0 + column - 1); break;
 2b6:	8f eb       	ldi	r24, 0xBF	; 191
 2b8:	86 0f       	add	r24, r22
 2ba:	0e 94 dc 00 	call	0x1b8	; 0x1b8 <lcd_wr_command>
 2be:	08 95       	ret
		case 3: lcd_wr_command (0x94 + column - 1); break;
 2c0:	83 e9       	ldi	r24, 0x93	; 147
 2c2:	86 0f       	add	r24, r22
 2c4:	0e 94 dc 00 	call	0x1b8	; 0x1b8 <lcd_wr_command>
 2c8:	08 95       	ret
		case 4: lcd_wr_command (0xd4 + column - 1); break;
 2ca:	83 ed       	ldi	r24, 0xD3	; 211
 2cc:	86 0f       	add	r24, r22
 2ce:	0e 94 dc 00 	call	0x1b8	; 0x1b8 <lcd_wr_command>
 2d2:	08 95       	ret

000002d4 <lcd_port_config>:
void buzzer_off(void)
{
	unsigned char port_restore = 0;
	port_restore = PINC;
	port_restore = port_restore & 0xF7;
	PORTC = port_restore;
 2d4:	87 b1       	in	r24, 0x07	; 7
 2d6:	87 6f       	ori	r24, 0xF7	; 247
 2d8:	87 b9       	out	0x07, r24	; 7
 2da:	88 b1       	in	r24, 0x08	; 8
 2dc:	80 78       	andi	r24, 0x80	; 128
 2de:	88 b9       	out	0x08, r24	; 8
 2e0:	08 95       	ret

000002e2 <buzzer_pin_config>:
 2e2:	3b 9a       	sbi	0x07, 3	; 7
 2e4:	43 98       	cbi	0x08, 3	; 8
 2e6:	08 95       	ret

000002e8 <port_init>:
}

void port_init()
{
	lcd_port_config();
 2e8:	0e 94 6a 01 	call	0x2d4	; 0x2d4 <lcd_port_config>
	buzzer_pin_config();
 2ec:	0e 94 71 01 	call	0x2e2	; 0x2e2 <buzzer_pin_config>
 2f0:	08 95       	ret

000002f2 <uart2_init>:
}

void uart2_init(void)
{
	UCSR2B = 0x00; //disable while setting baud rate
 2f2:	e1 ed       	ldi	r30, 0xD1	; 209
 2f4:	f0 e0       	ldi	r31, 0x00	; 0
 2f6:	10 82       	st	Z, r1
	UCSR2A = 0x00;
 2f8:	10 92 d0 00 	sts	0x00D0, r1	; 0x8000d0 <__TEXT_REGION_LENGTH__+0x7000d0>
	UCSR2C = 0x06;
 2fc:	86 e0       	ldi	r24, 0x06	; 6
 2fe:	80 93 d2 00 	sts	0x00D2, r24	; 0x8000d2 <__TEXT_REGION_LENGTH__+0x7000d2>
	UBRR2L = 0x5F; //set baud rate lo
 302:	8f e5       	ldi	r24, 0x5F	; 95
 304:	80 93 d4 00 	sts	0x00D4, r24	; 0x8000d4 <__TEXT_REGION_LENGTH__+0x7000d4>
	UBRR2H = 0x00; //set baud rate hi
 308:	10 92 d5 00 	sts	0x00D5, r1	; 0x8000d5 <__TEXT_REGION_LENGTH__+0x7000d5>
	UCSR2B = 0x98;
 30c:	88 e9       	ldi	r24, 0x98	; 152
 30e:	80 83       	st	Z, r24
 310:	08 95       	ret

00000312 <__vector_51>:
}


ISR(USART2_RX_vect)		// ISR for receive complete interrupt
{
 312:	1f 92       	push	r1
 314:	0f 92       	push	r0
 316:	0f b6       	in	r0, 0x3f	; 63
 318:	0f 92       	push	r0
 31a:	11 24       	eor	r1, r1
 31c:	0b b6       	in	r0, 0x3b	; 59
 31e:	0f 92       	push	r0
 320:	2f 93       	push	r18
 322:	3f 93       	push	r19
 324:	4f 93       	push	r20
 326:	5f 93       	push	r21
 328:	6f 93       	push	r22
 32a:	7f 93       	push	r23
 32c:	8f 93       	push	r24
 32e:	9f 93       	push	r25
 330:	af 93       	push	r26
 332:	bf 93       	push	r27
 334:	ef 93       	push	r30
 336:	ff 93       	push	r31
	data[count]= UDR2;
 338:	e0 91 02 02 	lds	r30, 0x0202	; 0x800202 <__data_end>
 33c:	f0 e0       	ldi	r31, 0x00	; 0
 33e:	80 91 d6 00 	lds	r24, 0x00D6	; 0x8000d6 <__TEXT_REGION_LENGTH__+0x7000d6>
 342:	eb 5f       	subi	r30, 0xFB	; 251
 344:	fd 4f       	sbci	r31, 0xFD	; 253
 346:	80 83       	st	Z, r24
	
	if(data[count] != "#")
 348:	e0 91 02 02 	lds	r30, 0x0202	; 0x800202 <__data_end>
 34c:	f0 e0       	ldi	r31, 0x00	; 0
 34e:	eb 5f       	subi	r30, 0xFB	; 251
 350:	fd 4f       	sbci	r31, 0xFD	; 253
 352:	80 81       	ld	r24, Z
 354:	90 e0       	ldi	r25, 0x00	; 0
 356:	80 50       	subi	r24, 0x00	; 0
 358:	92 40       	sbci	r25, 0x02	; 2
 35a:	81 f0       	breq	.+32     	; 0x37c <__vector_51+0x6a>
	{
		strcat(a,data[count]);
 35c:	e0 91 02 02 	lds	r30, 0x0202	; 0x800202 <__data_end>
 360:	f0 e0       	ldi	r31, 0x00	; 0
 362:	eb 5f       	subi	r30, 0xFB	; 251
 364:	fd 4f       	sbci	r31, 0xFD	; 253
 366:	60 81       	ld	r22, Z
 368:	70 e0       	ldi	r23, 0x00	; 0
 36a:	87 e3       	ldi	r24, 0x37	; 55
 36c:	92 e0       	ldi	r25, 0x02	; 2
 36e:	0e 94 f2 01 	call	0x3e4	; 0x3e4 <strcat>
		count++;
 372:	80 91 02 02 	lds	r24, 0x0202	; 0x800202 <__data_end>
 376:	8f 5f       	subi	r24, 0xFF	; 255
 378:	80 93 02 02 	sts	0x0202, r24	; 0x800202 <__data_end>
	}
}
 37c:	ff 91       	pop	r31
 37e:	ef 91       	pop	r30
 380:	bf 91       	pop	r27
 382:	af 91       	pop	r26
 384:	9f 91       	pop	r25
 386:	8f 91       	pop	r24
 388:	7f 91       	pop	r23
 38a:	6f 91       	pop	r22
 38c:	5f 91       	pop	r21
 38e:	4f 91       	pop	r20
 390:	3f 91       	pop	r19
 392:	2f 91       	pop	r18
 394:	0f 90       	pop	r0
 396:	0b be       	out	0x3b, r0	; 59
 398:	0f 90       	pop	r0
 39a:	0f be       	out	0x3f, r0	; 63
 39c:	0f 90       	pop	r0
 39e:	1f 90       	pop	r1
 3a0:	18 95       	reti

000003a2 <init_devices>:
	
void init_devices(void)
{
	cli();
 3a2:	f8 94       	cli
	port_init();
 3a4:	0e 94 74 01 	call	0x2e8	; 0x2e8 <port_init>
	uart2_init();
 3a8:	0e 94 79 01 	call	0x2f2	; 0x2f2 <uart2_init>
	sei();
 3ac:	78 94       	sei
 3ae:	08 95       	ret

000003b0 <main>:
}
int main(void)
{	
	init_devices();
 3b0:	0e 94 d1 01 	call	0x3a2	; 0x3a2 <init_devices>
	lcd_set_4bit();
 3b4:	0e 94 95 00 	call	0x12a	; 0x12a <lcd_set_4bit>
	lcd_init();
 3b8:	0e 94 01 01 	call	0x202	; 0x202 <lcd_init>
	lcd_cursor(1,1);
 3bc:	61 e0       	ldi	r22, 0x01	; 1
 3be:	70 e0       	ldi	r23, 0x00	; 0
 3c0:	81 e0       	ldi	r24, 0x01	; 1
 3c2:	90 e0       	ldi	r25, 0x00	; 0
 3c4:	0e 94 4b 01 	call	0x296	; 0x296 <lcd_cursor>
	while(1)
	{
		lcd_string(a);
 3c8:	87 e3       	ldi	r24, 0x37	; 55
 3ca:	92 e0       	ldi	r25, 0x02	; 2
 3cc:	0e 94 3c 01 	call	0x278	; 0x278 <lcd_string>
	#else
		//round up by default
		__ticks_dc = (uint32_t)(ceil(fabs(__tmp)));
	#endif

	__builtin_avr_delay_cycles(__ticks_dc);
 3d0:	2f ef       	ldi	r18, 0xFF	; 255
 3d2:	8f ef       	ldi	r24, 0xFF	; 255
 3d4:	9c e2       	ldi	r25, 0x2C	; 44
 3d6:	21 50       	subi	r18, 0x01	; 1
 3d8:	80 40       	sbci	r24, 0x00	; 0
 3da:	90 40       	sbci	r25, 0x00	; 0
 3dc:	e1 f7       	brne	.-8      	; 0x3d6 <main+0x26>
 3de:	00 c0       	rjmp	.+0      	; 0x3e0 <main+0x30>
 3e0:	00 00       	nop
 3e2:	f2 cf       	rjmp	.-28     	; 0x3c8 <main+0x18>

000003e4 <strcat>:
 3e4:	fb 01       	movw	r30, r22
 3e6:	dc 01       	movw	r26, r24
 3e8:	0d 90       	ld	r0, X+
 3ea:	00 20       	and	r0, r0
 3ec:	e9 f7       	brne	.-6      	; 0x3e8 <strcat+0x4>
 3ee:	11 97       	sbiw	r26, 0x01	; 1
 3f0:	01 90       	ld	r0, Z+
 3f2:	0d 92       	st	X+, r0
 3f4:	00 20       	and	r0, r0
 3f6:	e1 f7       	brne	.-8      	; 0x3f0 <strcat+0xc>
 3f8:	08 95       	ret

000003fa <_exit>:
 3fa:	f8 94       	cli

000003fc <__stop_program>:
 3fc:	ff cf       	rjmp	.-2      	; 0x3fc <__stop_program>
